:020000040800F2
:10000000E8040020310E0008210C0008230C000831
:10001000250C0008270C0008290C0008000000002F
:100020000000000000000000000000002D0C00088F
:100030002B0C0008000000002F0C0008310C0008F9
:10004000330C0008350C0008370C0008390C000888
:100050003B0C00083D0C00083F0C0008410C000858
:10006000430C0008450C0008470C0008490C000828
:100070004B0C00084D0C00084F0C0008510C0008F8
:10008000530C0008550C0008570C0008590C0008C8
:100090005B0C00085D0C00085F0C0008610C000898
:1000A000630C0008650C0008670C0008690C000868
:1000B0006B0C00086F0C0008730C0008750C00082E
:1000C000770C0008790C00087B0C00087D0C0008F8
:1000D0007F0C0008810C0008850C0008870C0008C4
:1000E000890C00088B0C00088D0C00088F0C000890
:1000F000910C0008930C0008950C0008970C000860
:10010000990C00089B0C00089D0C00089F0C00082F
:10011000A10C0008A30C0008A50C0008A70C0008FF
:10012000A90C0008AB0C0008AD0C0008AF0C0008CF
:1001300010B500F04DF800F088F800F0ADF800F0D0
:10014000DAF800F0F5F800F023F900F04DF942F28A
:10015000283000F0D7F9012000F0EDF9012000F07F
:10016000D7F9DFF88043072104F16C0000F015F89F
:100170000020607001E000F0FDF960780328FADBF0
:10018000042104F1680000F008F82078002801D06C
:100190000020207000F0EEF9F7E7F8B504460D46B0
:1001A000D14E4021304600F062FA0028F9D00027F5
:1001B0000AE0395D304600F052FA4021304600F046
:1001C00056FA0028F9D07F1CFFB2AF42F1D3F1BD3F
:1001D00080B500F079FA4FF4803000F091FA00F029
:1001E000A9FAC2490870012824D1102000F07DFB33
:1001F000022000F071FB002000F0D2FA002000F095
:10020000DDFA4FF4806000F0D2FA4FF4E0114FF4C1
:10021000803000F0ABFA012000F0B0FA392000F095
:1002200043FB0028FAD0022000F0AEFA00F0B3FA47
:100230000828FBD1012144F20D2000F019FB012117
:100240000320BDE8044000F021BB10B582B04FF49C
:100250000070ADF8000003208DF8020018208DF822
:100260000300A34C00A9204600F04CFB4FF4806033
:10027000ADF8000004208DF8030000A9204600F02E
:1002800041FB8020ADF8000010208DF8030000A98C
:10029000984800F037FB13BD10B586B000200090E1
:1002A000ADF804004FF4602002900020039001207C
:1002B0008DF81000904C00A9204600F073FB052338
:1002C00001221946204600F0B4FB0121204600F02F
:1002D0008BFB204600F093FB204600F095FB0028A6
:1002E000FAD1204600F098FB204600F09AFB002847
:1002F000FAD106B010BD1FB54FF416500090002083
:100300000190ADF80800ADF80C000C20ADF80A0023
:10031000754C00A9204600F039F9012240F2255120
:10032000204600F07FF90121204600F06FF91FBD43
:1003300010B584B0C720ADF8040048F69F40ADF872
:1003400000000020ADF80600ADF802006B4C00A9DB
:10035000204600F0ABFB01221146204600F0D2FB04
:100360000121204600F0C2FBC720ADF8040000A91F
:100370004FF0804000F09AFB012211464FF0804080
:1003800000F0C0FB01214FF0804000F0AFFB1FBD2B
:1003900080B500214FF0006000F028FC4FF4E060D1
:1003A00000F0CEFB25208DF8000000208DF8010024
:1003B00002208DF8020001208DF8030000A800F053
:1003C000C7FB1C208DF8000001208DF8020000A85A
:1003D00000F0BEFB1D208DF8000000208DF802000B
:1003E00000A800F0B5FB01BD80B545F2555000F006
:1003F000B1F8032000F0B2F843F2D30000F0B4F8F3
:1004000000F0B8F800F0BBF801214FF48070BDE8AF
:10041000044000F0F7BB70B5334C40F22551204644
:1004200000F02DF9012819D1354D2878632801DB1A
:10043000002028702B480078002803D0204600F0C8
:1004400012F907E02878461C2E70204600F00BF9C0
:10045000F6B270550021294800F05EFB40F2277586
:100460002946204600F00BF9002813D01D480179D9
:10047000002908D04A1E0271081801792046BDE8FB
:10048000704000F0ECB8002229462046BDE87040DC
:1004900000F0C8B870BD80B501214FF0804000F079
:1004A0003DFB002808D001214FF0804000F044FBC4
:1004B0000C484178491C417001BD10B50F4C012119
:1004C000204600F02BFB00280AD00121204600F036
:1004D00033FB0B480078002802D001200149087046
:1004E00010BD00000000002000380140E0000020A6
:1004F00000080140000C01400024014000040040BD
:100500007400002001490860704700BF14E000E05B
:100510000F49012804D1086840F0010008607047C5
:1005200010F1020F04D108684008400008607047CD
:1005300000208860704706490028086803D040F012
:1005400002000860704720F0020008607047000059
:1005500010E000E00C4908607047000001490860A5
:10056000704700BF0430004001490860704700BF79
:100570000830004004484AF6AA210160704702484A
:100580004CF6CC41016070470030004030B585B07A
:1005900005460C46288A4CF6FF710840E18808435E
:1005A0002882A8894EF6F3110840A18808432189C2
:1005B000084361890843A881A88A4FF6FF41084093
:1005C000A1890843A88200A800F000F90E488542DE
:1005D00001D1039800E0029819214843216889005D
:1005E000B0FBF1F06421B0FBF1F21201130901FB41
:1005F000130000013230B0FBF1F000F00F001043A7
:10060000288105B030BD00BF003801400029818934
:1006100003D041F40051818170474DF6FF721140C3
:100620008181704710B40B46DBB25B09012401F0F5
:100630001F0104FA01F1012B01D10C3004E0022B5F
:1006400001D1103000E01430002A026802D01143BA
:10065000016002E022EA0101016010BC7047C90597
:10066000C90D818070478088C005C00D7047008823
:1006700001400846401E8041C043C00F704710B47F
:100680000A46D2B25209012301F01F0403FA04F40E
:10069000012A02D18289224006E0022A02D1028A7E
:1006A000224001E0828A2240090A03FA01F100880F
:1006B0000840002A04D0401E8041C043C00F00E023
:1006C000002010BC704700008248016841F0010121
:1006D00001604168084A114041600168074A1140C1
:1006E0000160016821F480210160416821F4FE016C
:1006F00041600021816070470000FFF8FFFFF6FEB7
:1007000074490A6822F480320A600A6822F480225E
:100710000A60B0F5803F03D0B0F5802F05D0704758
:10072000086840F4803008607047086840F4A020F2
:100730000860704710B50C4C312000F0B5F82070FF
:100740006068401C60602078002804D1606840F236
:10075000FF118842F0D1312000F0A6F8401E804100
:10076000C043C00F10BD00BFD80000203F4A13682F
:1007700023F47C1318430843106070470149086054
:10078000704700BF6000424238490A6892089200F0
:100790001043086070473548006800F00C0070474F
:1007A00032490A6822F0F0021043086070472F496E
:1007B0000A6822F4E0621043086070472B490A6817
:1007C00022F4605242EAC0000860704710B4274922
:1007D0000A6802F00C02082A02D0214A026016E0E0
:1007E0000A6802F47012920C921C0B6813F48033A6
:1007F00003D11C4B5A43026009E00B689B0303D5ED
:10080000184B5A43026002E0154B5A4302600A68D3
:1008100002F0F003144A04681B099B5C24FA03F3FA
:1008200043600B6803F4E06344681B0A9B5C24FA92
:1008300003F383600B6803F460534468DB0A9B5C3A
:1008400024FA03F3C360096801F44041C36802EB72
:100850009131097CB3FBF1F1016110BC704700BF1D
:1008600000127A0000093D001C0E0008041002402E
:10087000054A0029116802D008431060704721EA38
:1008800000001060704700BF18100240054A0029A0
:10089000116802D008431060704721EA0000106020
:1008A000704700BF1C10024041090A4A012901D1CA
:1008B000116804E0022901D1116A00E0516A0122A5
:1008C00000F01F0002FA00F00840401E8041C043C3
:1008D000C00F70470010024009490A6802F0380250
:1008E0000A600A6810430860704705490A6822F0E8
:1008F00010020A600A681043086070470000000098
:1009000000200240F0B4CA7802F00F02CB78DB0678
:1009100001D58B781A430B88DBB2002B1CD00568FD
:10092000002316E001249C4026460F883740B7423A
:100930000ED19E000F27B740BD4302FA06F635439D
:10094000CE78282E00D14461CE78482E00D10461A3
:100950005B1C082BE6D305600B884FF48074A34220
:100960001ED34568002318E0012403F10806B440B3
:1009700026460F883740B7420ED19E000F27B7405A
:10098000BD4302FA06F63543CE78282E00D14461E5
:10099000CE78482E00D104615B1C082BE4D345605F
:1009A000F0BC704742680E4B1A400B681A430B7933
:1009B00042EA0322426082680A4B1A40CB681A431B
:1009C0008B681A434B7942EA43028260C26A22F47E
:1009D0007002097CFF31C9B242EA0151C16270471D
:1009E000FFFEF0FFFDF7F1FF0029816803D041F021
:1009F0000101816070474908490081607047816842
:100A000041F0080181607047806800F00801481ECD
:100A10008041C043C00F7047816841F0040181608C
:100A20007047806800F00401481E8041C043C00F39
:100A30007047F0B4032407250A290AD3C66801F1D8
:100A4000F6077C43A54026EA0505A3402B43C36077
:100A500007E006694C43A54026EA0505A3402B4361
:100A6000036105241F25072A09D2436BFF32624325
:100A700005FA02F4A34391401943416314E00D2A9F
:100A800009D2036BF932624305FA02F4A3439140A1
:100A90001943016308E0C36AF332624305FA02F4C2
:100AA000A34391401943C162F0BC704710B402885F
:100AB00002F08F0202800288CB884C8823431A43BD
:100AC00002808A8882850A88028501228282054AFC
:100AD000904202D0044A904201D1097A018610BCAA
:100AE00070470000002C01400034014000290188BB
:100AF00003D041F001010180704740F2FE32114005
:100B000001807047002A828902D011438181704799
:100B100022EA01018181704781847047028A0A407C
:100B200080890140002A05D00846401E8041C0430C
:100B3000C00F704700207047C94301827047000012
:100B4000024908432E490860704700000000FA057A
:100B5000F0B50121C278002A37D0294A126802F480
:100B6000E062C2F5E062120A1E4B0478A41053F84A
:100B70002460FF24057805F00305ED00AC400578FE
:100B8000AD10A6434778C2F1040C07FA0CF790F8B1
:100B900002C04FF00F0E2EFA02F202EA0C023A43A4
:100BA0001201077807F00307FF00BA4022403243E2
:100BB00043F8252002785211094B007800F01F00FD
:100BC00001FA00F043F82200F0BD02785211064B02
:100BD000007800F01F0001FA00F043F82200F0BD99
:100BE00000E100E000E400E080E100E0024A1140A2
:100BF000084302490860704780FFFF1F08ED00E0CE
:100C00000CED00E0054A0029116802D0084310608D
:100C1000704721EA00001060704700BF042004E024
:100C20007047FEE7FEE7FEE7FEE770477047704754
:100C300070477047704770477047704770477047FC
:100C400070477047704770477047704770477047EC
:100C500070477047704770477047704770477047DC
:100C600070477047704770477047FFF714BCFFF735
:100C700024BC704770477047704770477047704793
:100C8000FFF7C9BB704770477047704770477047A0
:100C9000704770477047704770477047704770479C
:100CA000704770477047704770477047704770478C
:100CB00030BF704720BF704740BF7047BFF36F8F92
:100CC0007047BFF34F8F7047BFF35F8F704701DFEF
:100CD0007047EFF31480704780F31488BFF36F8F71
:100CE0007047EFF30980704780F309887047EFF38E
:100CF0000880704780F30888704772B6704762B604
:100D0000704771B6704761B6704780F311887047BD
:100D1000EFF31280704740BA704700BA704719E08D
:100D200050F8041BCB0744BFA9F101035918121F47
:100D30000023042A41F8043BF9D25FEA827C0B4687
:100D400004D54FF0000CA1F800C09B1CD10744BF94
:100D50000021197050F8042B002AE1D1704710B41B
:100D600050F8041B79B10268436812180830DC0798
:100D700044BFA9F10104E31852F8044B43F8044BB3
:100D8000091FF9D1ECE710BC7047000010B5074906
:100D900079441831064C7C44163404E00A68081D76
:100DA000511888470146A142F8D110BD0800000043
:100DB000280000006BFFFFFF70000000740000209F
:100DC000000000009BFFFFFF7400000070000000A7
:100DD000000000200000000000F00BF8002801D007
:100DE000FFF7D4FF0020C046C046FFF7A1F900F08E
:100DF00002F80120704700F001B8000007463846AD
:100E000000F002F8FBE7000080B5C046C046024A89
:100E100011001820ABBEFBE7260002000000000016
:100E2000010203040102030406070809020406087C
:100E3000C046C046C046C046FFF7CEFF00000000D7
:100E400000000000000000000000000000000000A2
:100E50000000000000000000000000000000000092
:100E60000000000000000000000000000000000082
:100E70000000000000000000000000000000000072
:100E80000000000000000000000000000000000062
:100E90000000000000000000000000000000000052
:100EA00000000000FA0800AAFA0603363636AA0047
:0400000508000E31B0
:00000001FF
