:020000040800F2
:10000000F8040020510F0008410D0008430D0008BE
:10001000450D0008470D0008490D000800000000CC
:100020000000000000000000000000004D0D00086E
:100030004B0D0008000000004F0D0008510D000896
:10004000530D0008550D0008570D0008590D000804
:100050005B0D00085D0D00085F0D0008610D0008D4
:10006000630D0008650D0008670D0008690D0008A4
:100070006B0D00086D0D00086F0D0008710D000874
:10008000730D0008750D0008770D0008790D000844
:100090007B0D00087D0D00087F0D0008810D000814
:1000A000830D0008850D0008870D0008890D0008E4
:1000B0008B0D00088F0D0008930D0008950D0008AA
:1000C000970D0008990D00089B0D00089D0D000874
:1000D0009F0D0008A10D0008A50D0008A70D000840
:1000E000A90D0008AB0D0008AD0D0008AF0D00080C
:1000F000B10D0008B30D0008B50D0008B70D0008DC
:10010000B90D0008BB0D0008BD0D0008BF0D0008AB
:10011000C10D0008C30D0008C50D0008C70D00087B
:10012000C90D0008CB0D0008CD0D0008CF0D00084B
:1001300070B500F0C2F800F0FDF800F02DF900F005
:100140005AF900F075F900F0A3F900F0CDF942F288
:10015000283000F057FA012000F06DFA012000F07D
:1001600057FADFF87C44FA202070062060700C20DB
:10017000A070AA20E073042104F11C0000F082F8B2
:10018000DFF8605401E000F075FA607C0328FADBC8
:10019000207C002873D068787A2801D05A2837D17B
:1001A000A8786D2801D04D2832D1E8786B2801D08D
:1001B0004B282DD128796D2801D04D2828D1DFF882
:1001C00028648021304600F0B1FA0020607401E01C
:1001D00000F050FA607C0328FADB8021304600F002
:1001E000A7FA0020607401E000F044FA607C062861
:1001F000FADBDFF8F80302210170012141700221CE
:100200008170012240F22771DFF8E40300F0DEFA8A
:1002100068784C2802D0A8786F2821D1002020745B
:100220003A21284600F024FB60610021A16105E02D
:100230000A1852780B19DA70491CA161A1690C29BE
:10024000F6DB1021204600F01DF801E000F012FA64
:10025000607C0628FADB042104F1200000F012F88B
:1002600000202870208201E000F004FA607C06285B
:10027000FADB4FF48071DFF87C0300F057FA00F0EE
:10028000F9F985E7F8B504460D46D94E40213046C8
:1002900000F0C1FA0028F9D000270AE0395D3046A5
:1002A00000F0B1FA4021304600F0B5FA0028F9D04C
:1002B0007F1CFFB2AF42F1D3F1BD80B500F0E4FA8C
:1002C0004FF4803000F0FCFA00F014FBCA490870CB
:1002D000012824D1102000F0E8FB022000F0DCFB14
:1002E000002000F03DFB002000F048FB4FF4806050
:1002F00000F03DFB4FF4E0114FF4803000F016FBAE
:10030000012000F01BFB392000F0AEFB0028FAD0E2
:10031000022000F019FB00F01EFB0828FBD1012190
:1003200044F20D2000F084FB01210320BDE80440CD
:1003300000F08CBB10B582B04FF40070ADF8000037
:1003400003208DF8020018208DF80300A94C00A9A5
:10035000204600F09BF94FF48060ADF800000420C7
:100360008DF8030000A9204600F090F98020ADF838
:10037000000010208DF8030000A99B4800F086F9CA
:100380004FF48070ADF8000010208DF8030000A934
:10039000204600F07BF913BD10B586B00020009018
:1003A000ADF804004FF4602002900020039001207B
:1003B0008DF81000914C00A9204600F083FB052326
:1003C00001221946204600F0C4FB0121204600F01E
:1003D0009BFB204600F0A3FB204600F0A5FB002875
:1003E000FAD1204600F0A8FB204600F0AAFB002826
:1003F000FAD106B010BD1FB54FF416500090002082
:100400000190ADF80800ADF80C000C20ADF80A0022
:10041000774C00A9204600F08DF9012240F22551C9
:10042000204600F0D3F90121204600F0C3F91FBD9A
:1004300010B584B0C720ADF8040048F69F40ADF871
:1004400000000020ADF80600ADF802006C4C00A9D9
:10045000204600F0BBFB01221146204600F0E2FBE3
:100460000121204600F0D2FBC720ADF8040000A90E
:100470004FF0804000F0AAFB012211464FF080406F
:1004800000F0D0FB01214FF0804000F0BFFB1FBD0A
:1004900080B500214FF0006000F038FC4FF4E060C0
:1004A00000F0DEFB25208DF8000000208DF8010013
:1004B00002208DF8020001208DF8030000A800F052
:1004C000D7FB1C208DF8000001208DF8020000A849
:1004D00000F0CEFB1D208DF8000000208DF80200FA
:1004E00000A800F0C5FB01BD80B545F2555000F0F5
:1004F000B1F8032000F0B2F843F2D30000F0B4F8F2
:1005000000F0B8F800F0BBF801214FF48070BDE8AE
:10051000044000F007BC70B5354C40F22551204630
:1005200000F081F9012819D12E4D2878632801DBCC
:10053000002028702A48007C002803D0204600F0C4
:1005400066F907E02878461C2E70204600F05FF917
:10055000F6B2705500212A4800F06EFB40F2277574
:100560002946204600F05FF9002812D01F48017884
:10057000002907D04A1E0270095C2046BDE8704081
:1005800000F041B9002229462046BDE8704000F045
:100590001DB970BD80B501214FF0804000F04EFBC9
:1005A000002808D001214FF0804000F055FB0C4896
:1005B000417C491C417401BD10B5114C01212046FC
:1005C00000F03CFB00280AD00121204600F044FB4B
:1005D00004480078002802D001200149087410BDA9
:1005E0000000002024000020000C014088000020B2
:1005F0000038014000080140F400002000240140C0
:100600000004004001490860704700BF14E000E0AA
:100610000F49012804D1086840F0010008607047C4
:1006200010F1020F04D108684008400008607047CC
:1006300000208860704706490028086803D040F011
:1006400002000860704720F0020008607047000058
:1006500010E000E00C4908607047000001490860A4
:10066000704700BF0430004001490860704700BF78
:100670000830004004484AF6AA2101607047024849
:100680004CF6CC410160704700300040F0B4CA78AD
:1006900002F00F02CB78DB0601D58B781A430B886A
:1006A000DBB2002B1CD00568002316E001249C401F
:1006B00026460F883740B7420ED19E000F27B7401D
:1006C000BD4302FA06F63543CE78282E00D14461A8
:1006D000CE78482E00D104615B1C082BE6D3056060
:1006E0000B884FF48074A3421ED34568002318E0A2
:1006F000012403F10806B44026460F883740B7426C
:100700000ED19E000F27B740BD4302FA06F63543CF
:10071000CE78282E00D14461CE78482E00D10461D5
:100720005B1C082BE4D34560F0BC70470161704747
:100730004161704730B585B005460C46288A4CF6B5
:10074000FF710840E18808432882A8894EF6F3111A
:100750000840A18808432189084361890843A8818A
:10076000A88A4FF6FF410840A1890843A88200A843
:1007700000F00CF90E48854201D1039800E0029880
:100780001921484321688900B0FBF1F06421B0FBD6
:10079000F1F21201130901FB130000013230B0FB2A
:1007A000F1F000F00F001043288105B030BD00BF0C
:1007B000003801400029818903D041F40051818132
:1007C00070474DF6FF7211408181704710B40B469F
:1007D000DBB25B09012401F01F0104FA01F1012BD6
:1007E00001D10C3004E0022B01D1103000E01430B4
:1007F000002A026802D01143016002E022EA0101EE
:10080000016010BC7047C905C90D818070478088A0
:10081000C005C00D7047008801400846401E804159
:10082000C043C00F704710B40A46D2B25209012328
:1008300001F01F0403FA04F4012A02D18289224044
:1008400006E0022A02D1028A224001E0828A224086
:10085000090A03FA01F100880840002A04D0401E6A
:100860008041C043C00F00E0002010BC7047000072
:100870000278C9B28A421AB11CBF10F8012FF9E7F9
:1008800018BF0020704700008248016841F0010154
:1008900001604168084A114041600168074A1140FF
:1008A0000160016821F480210160416821F4FE01AA
:1008B00041600021816070470000FFF8FFFFF6FEF5
:1008C00074490A6822F480320A600A6822F480229D
:1008D0000A60B0F5803F03D0B0F5802F05D0704797
:1008E000086840F4803008607047086840F4A02031
:1008F0000860704710B50C4C312000F0B5F820703E
:100900006068401C60602078002804D1606840F274
:10091000FF118842F0D1312000F0A6F8401E80413E
:10092000C043C00F10BD00BFEC0000203F4A136859
:1009300023F47C1318430843106070470149086092
:10094000704700BF6000424238490A68920892002E
:100950001043086070473548006800F00C0070478D
:1009600032490A6822F0F0021043086070472F49AC
:100970000A6822F4E0621043086070472B490A6855
:1009800022F4605242EAC0000860704710B4274960
:100990000A6802F00C02082A02D0214A026016E01E
:1009A0000A6802F47012920C921C0B6813F48033E4
:1009B00003D11C4B5A43026009E00B689B0303D52B
:1009C000184B5A43026002E0154B5A4302600A6812
:1009D00002F0F003144A04681B099B5C24FA03F339
:1009E00043600B6803F4E06344681B0A9B5C24FAD1
:1009F00003F383600B6803F460534468DB0A9B5C79
:100A000024FA03F3C360096801F44041C36802EBB0
:100A10009131097CB3FBF1F1016110BC704700BF5B
:100A200000127A0000093D003C0F0008041002404B
:100A3000054A0029116802D008431060704721EA76
:100A400000001060704700BF18100240054A0029DE
:100A5000116802D008431060704721EA000010605E
:100A6000704700BF1C10024041090A4A012901D108
:100A7000116804E0022901D1116A00E0516A0122E3
:100A800000F01F0002FA00F00840401E8041C04301
:100A9000C00F70470010024009490A6802F038028E
:100AA0000A600A6810430860704705490A6822F026
:100AB00010020A600A6810430860704700000000D6
:100AC0000020024042680E4B1A400B681A430B7913
:100AD00042EA0322426082680A4B1A40CB681A43FA
:100AE0008B681A434B7942EA43028260C26A22F45D
:100AF0007002097CFF31C9B242EA0151C1627047FC
:100B0000FFFEF0FFFDF7F1FF0029816803D041F0FF
:100B10000101816070474908490081607047816820
:100B200041F0080181607047806800F00801481EAC
:100B30008041C043C00F7047816841F0040181606B
:100B40007047806800F00401481E8041C043C00F18
:100B50007047F0B4032407250A290AD3C66801F1B7
:100B6000F6077C43A54026EA0505A3402B43C36056
:100B700007E006694C43A54026EA0505A3402B4340
:100B8000036105241F25072A09D2436BFF32624304
:100B900005FA02F4A34391401943416314E00D2A7E
:100BA00009D2036BF932624305FA02F4A343914080
:100BB0001943016308E0C36AF332624305FA02F4A1
:100BC000A34391401943C162F0BC704710B402883E
:100BD00002F08F0202800288CB884C8823431A439C
:100BE00002808A8882850A88028501228282054ADB
:100BF000904202D0044A904201D1097A018610BC89
:100C000070470000002C0140003401400029018899
:100C100003D041F001010180704740F2FE321140E3
:100C200001807047002A828902D011438181704778
:100C300022EA01018181704781847047028A0A405B
:100C400080890140002A05D00846401E8041C043EB
:100C5000C00F704700207047C943018270470000F1
:100C6000024908432E490860704700000000FA0559
:100C7000F0B50121C278002A37D0294A126802F45F
:100C8000E062C2F5E062120A1E4B0478A41053F829
:100C90002460FF24057805F00305ED00AC400578DD
:100CA000AD10A6434778C2F1040C07FA0CF790F890
:100CB00002C04FF00F0E2EFA02F202EA0C023A4383
:100CC0001201077807F00307FF00BA4022403243C1
:100CD00043F8252002785211094B007800F01F00DC
:100CE00001FA00F043F82200F0BD02785211064BE1
:100CF000007800F01F0001FA00F043F82200F0BD78
:100D000000E100E000E400E080E100E0024A114080
:100D1000084302490860704780FFFF1F08ED00E0AC
:100D20000CED00E0054A0029116802D0084310606C
:100D3000704721EA00001060704700BF042004E003
:100D40007047FEE7FEE7FEE7FEE770477047704733
:100D500070477047704770477047704770477047DB
:100D600070477047704770477047704770477047CB
:100D700070477047704770477047704770477047BB
:100D800070477047704770477047FFF703BCFFF725
:100D900013BC704770477047704770477047704783
:100DA000FFF7B9BB7047704770477047704770478F
:100DB000704770477047704770477047704770477B
:100DC000704770477047704770477047704770476B
:100DD00030BF704720BF704740BF7047BFF36F8F71
:100DE0007047BFF34F8F7047BFF35F8F704701DFCE
:100DF0007047EFF31480704780F31488BFF36F8F50
:100E00007047EFF30980704780F309887047EFF36C
:100E10000880704780F30888704772B6704762B6E2
:100E2000704771B6704761B6704780F3118870479C
:100E3000EFF31280704740BA704700BA704719E06C
:100E400050F8041BCB0744BFA9F101035918121F26
:100E50000023042A41F8043BF9D25FEA827C0B4666
:100E600004D54FF0000CA1F800C09B1CD10744BF73
:100E70000021197050F8042B002AE1D1704710B4FA
:100E800050F8041B79B10268436812180830DC0777
:100E900044BFA9F10104E31852F8044B43F8044B92
:100EA000091FF9D1ECE710BC7047000010B50749E5
:100EB00079441831064C7C44163404E00A68081D55
:100EC000511888470146A142F8D110BD0800000022
:100ED000280000006BFFFFFFD4000000240000206A
:100EE000000000009BFFFFFF2400000070000000D6
:100EF000000000200000000000F00BF8002801D0E6
:100F0000FFF7D4FF0020C046C046FFF711F900F0FC
:100F100002F80120704700F001B80000074638468B
:100F200000F002F8FBE7000080B5C046C046024A68
:100F300011001820ABBEFBE72600020000000000F5
:100F4000010203040102030406070809020406085B
:100F5000C046C046C046C046FFF7CEFF00000000B6
:100F60000000000000000000000000000000000081
:100F70000000000000000000FB0300AAFA0800AA1D
:0400000508000F518F
:00000001FF
