:020000040800F2
:1000000028040020010E0008310C0008330C000801
:10001000350C0008370C0008390C000800000000FF
:100020000000000000000000000000003D0C00087F
:100030003B0C0008000000003F0C0008410C0008C9
:10004000430C0008450C0008470C0008490C000848
:100050004B0C00084D0C00084F0C0008510C000818
:10006000530C0008550C0008570C0008590C0008E8
:100070005B0C00085D0C00085F0C0008610C0008B8
:10008000630C0008650C0008670C0008690C000888
:100090006B0C00086D0C00086F0C0008710C000858
:1000A000730C0008750C0008770C0008790C000828
:1000B0007B0C00087F0C0008830C0008850C0008EE
:1000C000870C0008890C00088B0C00088D0C0008B8
:1000D0008F0C0008910C0008950C0008970C000884
:1000E000990C00089B0C00089D0C00089F0C000850
:1000F000A10C0008A30C0008A50C0008A70C000820
:10010000A90C0008AB0C0008AD0C0008AF0C0008EF
:10011000B10C0008B30C0008B50C0008B70C0008BF
:10012000B90C0008BB0C0008BD0C0008BF0C00088F
:1001300038B500F05CF800F097F800F0BCF800F07B
:10014000E9F800F004F900F032F900F05CF942F24D
:10015000283000F0E3F9012000F0F9F9012000F067
:10016000E3F9DFF89C43DFF89C5316E000F00EFA49
:10017000607E0628FADB02202073012060730220D3
:10018000A073012240F22771DFF87C0300F056FAD9
:1001900000202070207600F0F9F9207E0028FAD0A7
:1001A00060787A2801D05A28F2D1A0786D2801D041
:1001B0004D28EDD1E0786B2801D04B28E8D120798B
:1001C0006D2801D04D28E3D18021284600F0D0FAD7
:1001D0000020607601E000F0D9F9607E0328FADBA8
:1001E0008021284600F0C6FA00206076C0E780B57E
:1001F00000F0C2FA4FF4803000F0DAFA00F0F2FAC0
:10020000C2490870012824D1102000F0C6FB02204A
:1002100000F0BAFB002000F01BFB002000F026FBE2
:100220004FF4806000F01BFB4FF4E0114FF480307E
:1002300000F0F4FA012000F0F9FA392000F08CFB0C
:100240000028FAD0022000F0F7FA00F0FCFA0828A3
:10025000FBD1012144F20D2000F062FB01210320BB
:10026000BDE8044000F06ABB10B582B04FF40070E6
:10027000ADF8000003208DF8020018208DF803006F
:10028000A34C00A9204600F023FA4FF48060ADF89B
:10029000000004208DF8030000A9204600F018FAA1
:1002A0008020ADF8000010208DF8030000A99548CB
:1002B00000F00EFA13BD10B586B000200090ADF826
:1002C00004004FF4602002900020039001208DF87C
:1002D0001000904C00A9204600F06CFB0523012281
:1002E0001946204600F0ADFB0121204600F084FBBA
:1002F000204600F08CFB204600F08EFB0028FAD14F
:10030000204600F091FB204600F093FB0028FAD134
:1003100006B010BD1FB54FF416500090002001909C
:10032000ADF80800ADF80C000C20ADF80A00764CD2
:1003300000A9204600F036F9012240F2255120465E
:1003400000F07CF90121204600F06CF91FBD10B5CA
:1003500084B0C720ADF8040048F69F40ADF8000017
:100360000020ADF80600ADF802006B4C00A9204655
:1003700000F0A4FB01221146204600F0CBFB012136
:10038000204600F0BBFBC720ADF8040000A94FF0E9
:10039000804000F093FB012211464FF0804000F0B6
:1003A000B9FB01214FF0804000F0A8FB1FBD80B5D4
:1003B00000214FF0006000F021FC4FF4E06000F0FD
:1003C000C7FB25208DF8000000208DF801000220D9
:1003D0008DF8020001208DF8030000A800F0C0FB9A
:1003E0001C208DF8000001208DF8020000A800F00C
:1003F000B7FB1D208DF8000000208DF8020000A83A
:1004000000F0AEFB01BD80B545F2555000F0AEF8EE
:10041000032000F0AFF843F2D30000F0B1F800F091
:10042000B5F800F0B8F801214FF48070BDE8044041
:1004300000F0F0BB70B5344C40F22551204600F07E
:1004400022F9012818D12E4D2878092801DB002037
:100450002870287E002803D0204600F010F907E01D
:100460002878461C2E70204600F009F9F6B2705527
:100470000021294800F058FB40F2277631462046FB
:1004800000F001F9002813D01D4D287B002808D06A
:10049000411E29734019017B2046BDE8704000F0E1
:1004A000EAB8002231462046BDE8704000F0C6B8E8
:1004B00070BD80B501214FF0804000F037FB00286F
:1004C00008D001214FF0804000F03EFB0C48417EF7
:1004D000491C417601BD10B50F4C0121204600F0AA
:1004E00025FB002809D00121204600F02DFB0448FF
:1004F0000178002901D00121017610BD0000000023
:1005000000000020000C0140003801401A000020CB
:100510000008014000240140000400400149086037
:10052000704700BF14E000E00F49012804D10868BB
:1005300040F001000860704710F1020F04D1086814
:1005400040084000086070470020886070470649F6
:100550000028086803D040F002000860704720F0CF
:10056000020008607047000010E000E00C490860DD
:100570007047000001490860704700BF0430004028
:1005800001490860704700BF0830004004484AF63F
:10059000AA210160704702484CF6CC4101607047C7
:1005A0000030004030B585B005460C46288A4CF630
:1005B000FF710840E18808432882A8894EF6F311AC
:1005C0000840A18808432189084361890843A8811C
:1005D000A88A4FF6FF410840A1890843A88200A8D5
:1005E00000F04CF90E48854201D1039800E00298D2
:1005F0001921484321688900B0FBF1F06421B0FB68
:10060000F1F21201130901FB130000013230B0FBBB
:10061000F1F000F00F001043288105B030BD00BF9D
:10062000003801400029818903D041F400518181C3
:1006300070474DF6FF7211408181704710B40B4630
:10064000DBB25B09012401F01F0104FA01F1012B67
:1006500001D10C3004E0022B01D1103000E0143045
:10066000002A026802D01143016002E022EA01017F
:10067000016010BC7047C905C90D81807047808832
:10068000C005C00D704710B40A46D2B2520901230A
:1006900001F01F0403FA04F4012A02D182892240E6
:1006A00006E0022A02D1028A224001E0828A224028
:1006B000090A03FA01F100880840002A04D0401E0C
:1006C0008041C043C00F00E0002010BC7047000014
:1006D000F0B4CA7802F00F02CB78DB0601D58B7834
:1006E0001A430B88DBB2002B1CD00568002316E0F0
:1006F00001249C4026460F883740B7420ED19E0009
:100700000F27B740BD4302FA06F63543CE78282EB0
:1007100000D14461CE78482E00D104615B1C082BC7
:10072000E6D305600B884FF48074A3421ED345685E
:10073000002318E0012403F10806B44026460F8880
:100740003740B7420ED19E000F27B740BD4302FA93
:1007500006F63543CE78282E00D14461CE78482E57
:1007600000D104615B1C082BE4D34560F0BC7047EA
:1007700001617047416170478248016841F00101A1
:1007800001604168084A114041600168074A114010
:100790000160016821F480210160416821F4FE01BB
:1007A00041600021816070470000FFF8FFFFF6FE06
:1007B00074490A6822F480320A600A6822F48022AE
:1007C0000A60B0F5803F03D0B0F5802F05D07047A8
:1007D000086840F4803008607047086840F4A02042
:1007E0000860704710B50C4C312000F0B5F820704F
:1007F0006068401C60602078002804D1606840F286
:10080000FF118842F0D1312000F0A6F8401E80414F
:10081000C043C00F10BD00BF1C0000203F4A13683A
:1008200023F47C13184308431060704701490860A3
:10083000704700BF6000424238490A68920892003F
:100840001043086070473548006800F00C0070479E
:1008500032490A6822F0F0021043086070472F49BD
:100860000A6822F4E0621043086070472B490A6866
:1008700022F4605242EAC0000860704710B4274971
:100880000A6802F00C02082A02D0214A026016E02F
:100890000A6802F47012920C921C0B6813F48033F5
:1008A00003D11C4B5A43026009E00B689B0303D53C
:1008B000184B5A43026002E0154B5A4302600A6823
:1008C00002F0F003144A04681B099B5C24FA03F34A
:1008D00043600B6803F4E06344681B0A9B5C24FAE2
:1008E00003F383600B6803F460534468DB0A9B5C8A
:1008F00024FA03F3C360096801F44041C36802EBC2
:100900009131097CB3FBF1F1016110BC704700BF6C
:1009100000127A0000093D00EC0D000804100240AE
:10092000054A0029116802D008431060704721EA87
:1009300000001060704700BF18100240054A0029EF
:10094000116802D008431060704721EA000010606F
:10095000704700BF1C10024041090A4A012901D119
:10096000116804E0022901D1116A00E0516A0122F4
:1009700000F01F0002FA00F00840401E8041C04312
:10098000C00F70470010024009490A6802F038029F
:100990000A600A6810430860704705490A6822F037
:1009A00010020A600A6810430860704700000000E7
:1009B0000020024042680E4B1A400B681A430B7924
:1009C00042EA0322426082680A4B1A40CB681A430B
:1009D0008B681A434B7942EA43028260C26A22F46E
:1009E0007002097CFF31C9B242EA0151C16270470D
:1009F000FFFEF0FFFDF7F1FF0029816803D041F011
:100A00000101816070474908490081607047816831
:100A100041F0080181607047806800F00801481EBD
:100A20008041C043C00F7047816841F0040181607C
:100A30007047806800F00401481E8041C043C00F29
:100A40007047F0B4032407250A290AD3C66801F1C8
:100A5000F6077C43A54026EA0505A3402B43C36067
:100A600007E006694C43A54026EA0505A3402B4351
:100A7000036105241F25072A09D2436BFF32624315
:100A800005FA02F4A34391401943416314E00D2A8F
:100A900009D2036BF932624305FA02F4A343914091
:100AA0001943016308E0C36AF332624305FA02F4B2
:100AB000A34391401943C162F0BC704710B402884F
:100AC00002F08F0202800288CB884C8823431A43AD
:100AD00002808A8882850A88028501228282054AEC
:100AE000904202D0044A904201D1097A018610BC9A
:100AF00070470000002C01400034014000290188AB
:100B000003D041F001010180704740F2FE321140F4
:100B100001807047002A828902D011438181704789
:100B200022EA01018181704781847047028A0A406C
:100B300080890140002A05D00846401E8041C043FC
:100B4000C00F704700207047C94301827047000002
:100B5000024908432E490860704700000000FA056A
:100B6000F0B50121C278002A37D0294A126802F470
:100B7000E062C2F5E062120A1E4B0478A41053F83A
:100B80002460FF24057805F00305ED00AC400578EE
:100B9000AD10A6434778C2F1040C07FA0CF790F8A1
:100BA00002C04FF00F0E2EFA02F202EA0C023A4394
:100BB0001201077807F00307FF00BA4022403243D2
:100BC00043F8252002785211094B007800F01F00ED
:100BD00001FA00F043F82200F0BD02785211064BF2
:100BE000007800F01F0001FA00F043F82200F0BD89
:100BF00000E100E000E400E080E100E0024A114092
:100C0000084302490860704780FFFF1F08ED00E0BD
:100C10000CED00E0054A0029116802D0084310607D
:100C2000704721EA00001060704700BF042004E014
:100C30007047FEE7FEE7FEE7FEE770477047704744
:100C400070477047704770477047704770477047EC
:100C500070477047704770477047704770477047DC
:100C600070477047704770477047704770477047CC
:100C700070477047704770477047FFF71ABCFFF71F
:100C80002ABC70477047704770477047704770477D
:100C9000FFF7D0BB70477047704770477047704789
:100CA000704770477047704770477047704770478C
:100CB000704770477047704770477047704770477C
:100CC00030BF704720BF704740BF7047BFF36F8F82
:100CD0007047BFF34F8F7047BFF35F8F704701DFDF
:100CE0007047EFF31480704780F31488BFF36F8F61
:100CF0007047EFF30980704780F309887047EFF37E
:100D00000880704780F30888704772B6704762B6F3
:100D1000704771B6704761B6704780F311887047AD
:100D2000EFF31280704740BA704700BA704719E07D
:100D300050F8041BCB0744BFA9F101035918121F37
:100D40000023042A41F8043BF9D25FEA827C0B4677
:100D500004D54FF0000CA1F800C09B1CD10744BF84
:100D60000021197050F8042B002AE1D170470000CF
:100D700010B5074979441831064C7C44163404E018
:100D80000A68081D511888470146A142F8D110BDD4
:100D9000080000001400000097FFFFFF240000007F
:100DA000000000200000000000F00BF8002801D037
:100DB000FFF7DEFF0020C046C046FFF7B9F900F09C
:100DC00002F80120704700F001B8000007463846DD
:100DD00000F002F8FBE7000080B5C046C046024ABA
:100DE00011001820ABBEFBE7260002000000000047
:100DF00001020304010203040607080902040608AD
:0C0E0000C046C046C046C046FFF7CEFF0B
:0400000508000E01E0
:00000001FF
